{
  "_format": "hh-sol-artifact-1",
  "contractName": "OwnedResolver",
  "sourceName": "contracts/resolvers/OwnedResolver.sol",
  "abi": [
    {
      "anonymous": false,
      "inputs": [
        {
          "indexed": true,
          "internalType": "bytes32",
          "name": "node",
          "type": "bytes32"
        },
        {
          "indexed": true,
          "internalType": "uint256",
          "name": "contentType",
          "type": "uint256"
        }
      ],
      "name": "ABIChanged",
      "type": "event"
    },
    {
      "anonymous": false,
      "inputs": [
        {
          "indexed": true,
          "internalType": "bytes32",
          "name": "node",
          "type": "bytes32"
        },
        {
          "indexed": false,
          "internalType": "address",
          "name": "a",
          "type": "address"
        }
      ],
      "name": "AddrChanged",
      "type": "event"
    },
    {
      "anonymous": false,
      "inputs": [
        {
          "indexed": true,
          "internalType": "bytes32",
          "name": "node",
          "type": "bytes32"
        },
        {
          "indexed": false,
          "internalType": "uint256",
          "name": "coinType",
          "type": "uint256"
        },
        {
          "indexed": false,
          "internalType": "bytes",
          "name": "newAddress",
          "type": "bytes"
        }
      ],
      "name": "AddressChanged",
      "type": "event"
    },
    {
      "anonymous": false,
      "inputs": [
        {
          "indexed": true,
          "internalType": "bytes32",
          "name": "node",
          "type": "bytes32"
        },
        {
          "indexed": false,
          "internalType": "bytes",
          "name": "hash",
          "type": "bytes"
        }
      ],
      "name": "ContenthashChanged",
      "type": "event"
    },
    {
      "anonymous": false,
      "inputs": [
        {
          "indexed": true,
          "internalType": "bytes32",
          "name": "node",
          "type": "bytes32"
        },
        {
          "indexed": false,
          "internalType": "bytes",
          "name": "name",
          "type": "bytes"
        },
        {
          "indexed": false,
          "internalType": "uint16",
          "name": "resource",
          "type": "uint16"
        },
        {
          "indexed": false,
          "internalType": "bytes",
          "name": "record",
          "type": "bytes"
        }
      ],
      "name": "DNSRecordChanged",
      "type": "event"
    },
    {
      "anonymous": false,
      "inputs": [
        {
          "indexed": true,
          "internalType": "bytes32",
          "name": "node",
          "type": "bytes32"
        },
        {
          "indexed": false,
          "internalType": "bytes",
          "name": "name",
          "type": "bytes"
        },
        {
          "indexed": false,
          "internalType": "uint16",
          "name": "resource",
          "type": "uint16"
        }
      ],
      "name": "DNSRecordDeleted",
      "type": "event"
    },
    {
      "anonymous": false,
      "inputs": [
        {
          "indexed": true,
          "internalType": "bytes32",
          "name": "node",
          "type": "bytes32"
        },
        {
          "indexed": false,
          "internalType": "bytes",
          "name": "lastzonehash",
          "type": "bytes"
        },
        {
          "indexed": false,
          "internalType": "bytes",
          "name": "zonehash",
          "type": "bytes"
        }
      ],
      "name": "DNSZonehashChanged",
      "type": "event"
    },
    {
      "anonymous": false,
      "inputs": [
        {
          "indexed": true,
          "internalType": "bytes32",
          "name": "node",
          "type": "bytes32"
        },
        {
          "indexed": true,
          "internalType": "bytes4",
          "name": "interfaceID",
          "type": "bytes4"
        },
        {
          "indexed": false,
          "internalType": "address",
          "name": "implementer",
          "type": "address"
        }
      ],
      "name": "InterfaceChanged",
      "type": "event"
    },
    {
      "anonymous": false,
      "inputs": [
        {
          "indexed": true,
          "internalType": "bytes32",
          "name": "node",
          "type": "bytes32"
        },
        {
          "indexed": false,
          "internalType": "string",
          "name": "name",
          "type": "string"
        }
      ],
      "name": "NameChanged",
      "type": "event"
    },
    {
      "anonymous": false,
      "inputs": [
        {
          "indexed": true,
          "internalType": "address",
          "name": "previousOwner",
          "type": "address"
        },
        {
          "indexed": true,
          "internalType": "address",
          "name": "newOwner",
          "type": "address"
        }
      ],
      "name": "OwnershipTransferred",
      "type": "event"
    },
    {
      "anonymous": false,
      "inputs": [
        {
          "indexed": true,
          "internalType": "bytes32",
          "name": "node",
          "type": "bytes32"
        },
        {
          "indexed": false,
          "internalType": "bytes32",
          "name": "x",
          "type": "bytes32"
        },
        {
          "indexed": false,
          "internalType": "bytes32",
          "name": "y",
          "type": "bytes32"
        }
      ],
      "name": "PubkeyChanged",
      "type": "event"
    },
    {
      "anonymous": false,
      "inputs": [
        {
          "indexed": true,
          "internalType": "bytes32",
          "name": "node",
          "type": "bytes32"
        },
        {
          "indexed": true,
          "internalType": "string",
          "name": "indexedKey",
          "type": "string"
        },
        {
          "indexed": false,
          "internalType": "string",
          "name": "key",
          "type": "string"
        },
        {
          "indexed": false,
          "internalType": "string",
          "name": "value",
          "type": "string"
        }
      ],
      "name": "TextChanged",
      "type": "event"
    },
    {
      "anonymous": false,
      "inputs": [
        {
          "indexed": true,
          "internalType": "bytes32",
          "name": "node",
          "type": "bytes32"
        },
        {
          "indexed": false,
          "internalType": "uint64",
          "name": "newVersion",
          "type": "uint64"
        }
      ],
      "name": "VersionChanged",
      "type": "event"
    },
    {
      "inputs": [
        {
          "internalType": "bytes32",
          "name": "node",
          "type": "bytes32"
        },
        {
          "internalType": "uint256",
          "name": "contentTypes",
          "type": "uint256"
        }
      ],
      "name": "ABI",
      "outputs": [
        {
          "internalType": "uint256",
          "name": "",
          "type": "uint256"
        },
        {
          "internalType": "bytes",
          "name": "",
          "type": "bytes"
        }
      ],
      "stateMutability": "view",
      "type": "function"
    },
    {
      "inputs": [
        {
          "internalType": "bytes32",
          "name": "node",
          "type": "bytes32"
        }
      ],
      "name": "addr",
      "outputs": [
        {
          "internalType": "address payable",
          "name": "",
          "type": "address"
        }
      ],
      "stateMutability": "view",
      "type": "function"
    },
    {
      "inputs": [
        {
          "internalType": "bytes32",
          "name": "node",
          "type": "bytes32"
        },
        {
          "internalType": "uint256",
          "name": "coinType",
          "type": "uint256"
        }
      ],
      "name": "addr",
      "outputs": [
        {
          "internalType": "bytes",
          "name": "",
          "type": "bytes"
        }
      ],
      "stateMutability": "view",
      "type": "function"
    },
    {
      "inputs": [
        {
          "internalType": "bytes32",
          "name": "node",
          "type": "bytes32"
        }
      ],
      "name": "clearRecords",
      "outputs": [],
      "stateMutability": "nonpayable",
      "type": "function"
    },
    {
      "inputs": [
        {
          "internalType": "bytes32",
          "name": "node",
          "type": "bytes32"
        }
      ],
      "name": "contenthash",
      "outputs": [
        {
          "internalType": "bytes",
          "name": "",
          "type": "bytes"
        }
      ],
      "stateMutability": "view",
      "type": "function"
    },
    {
      "inputs": [
        {
          "internalType": "bytes32",
          "name": "node",
          "type": "bytes32"
        },
        {
          "internalType": "bytes32",
          "name": "name",
          "type": "bytes32"
        },
        {
          "internalType": "uint16",
          "name": "resource",
          "type": "uint16"
        }
      ],
      "name": "dnsRecord",
      "outputs": [
        {
          "internalType": "bytes",
          "name": "",
          "type": "bytes"
        }
      ],
      "stateMutability": "view",
      "type": "function"
    },
    {
      "inputs": [
        {
          "internalType": "bytes32",
          "name": "node",
          "type": "bytes32"
        },
        {
          "internalType": "bytes32",
          "name": "name",
          "type": "bytes32"
        }
      ],
      "name": "hasDNSRecords",
      "outputs": [
        {
          "internalType": "bool",
          "name": "",
          "type": "bool"
        }
      ],
      "stateMutability": "view",
      "type": "function"
    },
    {
      "inputs": [
        {
          "internalType": "bytes32",
          "name": "node",
          "type": "bytes32"
        },
        {
          "internalType": "bytes4",
          "name": "interfaceID",
          "type": "bytes4"
        }
      ],
      "name": "interfaceImplementer",
      "outputs": [
        {
          "internalType": "address",
          "name": "",
          "type": "address"
        }
      ],
      "stateMutability": "view",
      "type": "function"
    },
    {
      "inputs": [
        {
          "internalType": "bytes32",
          "name": "node",
          "type": "bytes32"
        }
      ],
      "name": "name",
      "outputs": [
        {
          "internalType": "string",
          "name": "",
          "type": "string"
        }
      ],
      "stateMutability": "view",
      "type": "function"
    },
    {
      "inputs": [],
      "name": "owner",
      "outputs": [
        {
          "internalType": "address",
          "name": "",
          "type": "address"
        }
      ],
      "stateMutability": "view",
      "type": "function"
    },
    {
      "inputs": [
        {
          "internalType": "bytes32",
          "name": "node",
          "type": "bytes32"
        }
      ],
      "name": "pubkey",
      "outputs": [
        {
          "internalType": "bytes32",
          "name": "x",
          "type": "bytes32"
        },
        {
          "internalType": "bytes32",
          "name": "y",
          "type": "bytes32"
        }
      ],
      "stateMutability": "view",
      "type": "function"
    },
    {
      "inputs": [
        {
          "internalType": "bytes32",
          "name": "",
          "type": "bytes32"
        }
      ],
      "name": "recordVersions",
      "outputs": [
        {
          "internalType": "uint64",
          "name": "",
          "type": "uint64"
        }
      ],
      "stateMutability": "view",
      "type": "function"
    },
    {
      "inputs": [],
      "name": "renounceOwnership",
      "outputs": [],
      "stateMutability": "nonpayable",
      "type": "function"
    },
    {
      "inputs": [
        {
          "internalType": "bytes",
          "name": "",
          "type": "bytes"
        },
        {
          "internalType": "bytes",
          "name": "data",
          "type": "bytes"
        }
      ],
      "name": "resolve",
      "outputs": [
        {
          "internalType": "bytes",
          "name": "",
          "type": "bytes"
        }
      ],
      "stateMutability": "view",
      "type": "function"
    },
    {
      "inputs": [
        {
          "internalType": "bytes32",
          "name": "node",
          "type": "bytes32"
        },
        {
          "internalType": "uint256",
          "name": "contentType",
          "type": "uint256"
        },
        {
          "internalType": "bytes",
          "name": "data",
          "type": "bytes"
        }
      ],
      "name": "setABI",
      "outputs": [],
      "stateMutability": "nonpayable",
      "type": "function"
    },
    {
      "inputs": [
        {
          "internalType": "bytes32",
          "name": "node",
          "type": "bytes32"
        },
        {
          "internalType": "uint256",
          "name": "coinType",
          "type": "uint256"
        },
        {
          "internalType": "bytes",
          "name": "a",
          "type": "bytes"
        }
      ],
      "name": "setAddr",
      "outputs": [],
      "stateMutability": "nonpayable",
      "type": "function"
    },
    {
      "inputs": [
        {
          "internalType": "bytes32",
          "name": "node",
          "type": "bytes32"
        },
        {
          "internalType": "address",
          "name": "a",
          "type": "address"
        }
      ],
      "name": "setAddr",
      "outputs": [],
      "stateMutability": "nonpayable",
      "type": "function"
    },
    {
      "inputs": [
        {
          "internalType": "bytes32",
          "name": "node",
          "type": "bytes32"
        },
        {
          "internalType": "bytes",
          "name": "hash",
          "type": "bytes"
        }
      ],
      "name": "setContenthash",
      "outputs": [],
      "stateMutability": "nonpayable",
      "type": "function"
    },
    {
      "inputs": [
        {
          "internalType": "bytes32",
          "name": "node",
          "type": "bytes32"
        },
        {
          "internalType": "bytes",
          "name": "data",
          "type": "bytes"
        }
      ],
      "name": "setDNSRecords",
      "outputs": [],
      "stateMutability": "nonpayable",
      "type": "function"
    },
    {
      "inputs": [
        {
          "internalType": "bytes32",
          "name": "node",
          "type": "bytes32"
        },
        {
          "internalType": "bytes4",
          "name": "interfaceID",
          "type": "bytes4"
        },
        {
          "internalType": "address",
          "name": "implementer",
          "type": "address"
        }
      ],
      "name": "setInterface",
      "outputs": [],
      "stateMutability": "nonpayable",
      "type": "function"
    },
    {
      "inputs": [
        {
          "internalType": "bytes32",
          "name": "node",
          "type": "bytes32"
        },
        {
          "internalType": "string",
          "name": "newName",
          "type": "string"
        }
      ],
      "name": "setName",
      "outputs": [],
      "stateMutability": "nonpayable",
      "type": "function"
    },
    {
      "inputs": [
        {
          "internalType": "bytes32",
          "name": "node",
          "type": "bytes32"
        },
        {
          "internalType": "bytes32",
          "name": "x",
          "type": "bytes32"
        },
        {
          "internalType": "bytes32",
          "name": "y",
          "type": "bytes32"
        }
      ],
      "name": "setPubkey",
      "outputs": [],
      "stateMutability": "nonpayable",
      "type": "function"
    },
    {
      "inputs": [
        {
          "internalType": "bytes32",
          "name": "node",
          "type": "bytes32"
        },
        {
          "internalType": "string",
          "name": "key",
          "type": "string"
        },
        {
          "internalType": "string",
          "name": "value",
          "type": "string"
        }
      ],
      "name": "setText",
      "outputs": [],
      "stateMutability": "nonpayable",
      "type": "function"
    },
    {
      "inputs": [
        {
          "internalType": "bytes32",
          "name": "node",
          "type": "bytes32"
        },
        {
          "internalType": "bytes",
          "name": "hash",
          "type": "bytes"
        }
      ],
      "name": "setZonehash",
      "outputs": [],
      "stateMutability": "nonpayable",
      "type": "function"
    },
    {
      "inputs": [
        {
          "internalType": "bytes4",
          "name": "interfaceID",
          "type": "bytes4"
        }
      ],
      "name": "supportsInterface",
      "outputs": [
        {
          "internalType": "bool",
          "name": "",
          "type": "bool"
        }
      ],
      "stateMutability": "view",
      "type": "function"
    },
    {
      "inputs": [
        {
          "internalType": "bytes32",
          "name": "node",
          "type": "bytes32"
        },
        {
          "internalType": "string",
          "name": "key",
          "type": "string"
        }
      ],
      "name": "text",
      "outputs": [
        {
          "internalType": "string",
          "name": "",
          "type": "string"
        }
      ],
      "stateMutability": "view",
      "type": "function"
    },
    {
      "inputs": [
        {
          "internalType": "address",
          "name": "newOwner",
          "type": "address"
        }
      ],
      "name": "transferOwnership",
      "outputs": [],
      "stateMutability": "nonpayable",
      "type": "function"
    },
    {
      "inputs": [
        {
          "internalType": "bytes32",
          "name": "node",
          "type": "bytes32"
        }
      ],
      "name": "zonehash",
      "outputs": [
        {
          "internalType": "bytes",
          "name": "",
          "type": "bytes"
        }
      ],
      "stateMutability": "view",
      "type": "function"
    }
  ],
  "bytecode": "0x608060405234801561001057600080fd5b5061001a3361001f565b61006f565b600080546001600160a01b038381166001600160a01b0319831681178455604051919092169283917f8be0079c531659141344cd1fd0a4f28419497f9722a3daafe3b4186f6b6457e09190a35050565b61292b8061007e6000396000f3fe608060405234801561001057600080fd5b50600436106101c45760003560e01c8063715018a6116100f9578063c869023311610097578063d700ff3311610071578063d700ff3314610450578063e59d895d14610493578063f1cb7e06146104a6578063f2fde38b146104b957600080fd5b8063c8690233146103d0578063ce3decdc1461042a578063d5fa2b001461043d57600080fd5b80638da5cb5b116100d35780638da5cb5b146103865780639061b92314610397578063a8fa5682146103aa578063bc1c58d1146103bd57600080fd5b8063715018a61461035857806377372213146103605780638b95dd711461037357600080fd5b80633603d7581161016657806359d1d43c1161014057806359d1d43c146102ff5780635c98042b1461031f578063623195b014610332578063691f34311461034557600080fd5b80633603d7581461028b5780633b3b57de1461029e5780634cbf6ba4146102b157600080fd5b8063124a319c116101a2578063124a319c146102195780632203ab561461024457806329cd62ea14610265578063304e6ade1461027857600080fd5b806301ffc9a7146101c95780630af179d7146101f157806310f13a8c14610206575b600080fd5b6101dc6101d736600461205c565b6104cc565b60405190151581526020015b60405180910390f35b6102046101ff3660046120b9565b6104dd565b005b610204610214366004612105565b6106ef565b61022c61022736600461217f565b6107c4565b6040516001600160a01b0390911681526020016101e8565b6102576102523660046121ab565b610a72565b6040516101e892919061221d565b610204610273366004612236565b610baa565b6102046102863660046120b9565b610c52565b610204610299366004612262565b610cd6565b61022c6102ac366004612262565b610d81565b6101dc6102bf3660046121ab565b60008281526001602090815260408083205467ffffffffffffffff1683526007825280832094835293815283822092825291909152205461ffff16151590565b61031261030d3660046120b9565b610db3565b6040516101e8919061227b565b61031261032d366004612262565b610e95565b61020461034036600461228e565b610f56565b610312610353366004612262565b610ffb565b610204611037565b61020461036e3660046120b9565b61104b565b610204610381366004612384565b6110cf565b6000546001600160a01b031661022c565b6103126103a53660046123d4565b6111b7565b6103126103b8366004612438565b611230565b6103126103cb366004612262565b611280565b6104156103de366004612262565b60008181526001602081815260408084205467ffffffffffffffff168452600a825280842094845293905291902080549101549091565b604080519283526020830191909152016101e8565b6102046104383660046120b9565b6112bc565b61020461044b36600461248f565b611407565b61047a61045e366004612262565b60016020526000908152604090205467ffffffffffffffff1681565b60405167ffffffffffffffff90911681526020016101e8565b6102046104a13660046124b2565b611434565b6103126104b43660046121ab565b6114f0565b6102046104c73660046124ee565b6115ba565b60006104d78261164f565b92915050565b60005483906001600160a01b031633146104f657600080fd5b6000848152600160209081526040808320548151601f870184900484028101840190925285825283926060928392859267ffffffffffffffff90911691839161055e9183918d908d9081908401838280828437600092019190915250929392505061168d9050565b90505b80515160208201511015610688578661ffff166000036105c6578060400151965061058b816116ee565b94508460405160200161059e9190612509565b6040516020818303038152906040528051906020012092506105bf8161170f565b935061067a565b60006105d1826116ee565b9050816040015161ffff168861ffff161415806105f557506105f3868261172b565b155b15610678576106518c878a8e8e8080601f016020809104026020016040519081016040528093929190818152602001838380828437600092019190915250505060208801518d915061064890829061253b565b8b51158a611749565b8160400151975081602001519650809550858051906020012093506106758261170f565b94505b505b610683816119b6565b610561565b508351156106e3576106e38a85888c8c8080601f0160208091040260200160405190810160405280939291908181526020018383808284376000920191909152508c92506106da91508290508f61253b565b89511588611749565b50505050505050505050565b60005485906001600160a01b0316331461070857600080fd5b60008681526001602090815260408083205467ffffffffffffffff168352600b82528083208984529091529081902090518491849161074a908990899061254e565b908152602001604051809103902091826107659291906125e6565b50848460405161077692919061254e565b6040518091039020867f448bc014f1536726cf8d54ff3d6481ed3cbc683c2591ca204274009afa09b1a1878787876040516107b494939291906126cf565b60405180910390a3505050505050565b60008281526001602090815260408083205467ffffffffffffffff1683526008825280832085845282528083206001600160e01b0319851684529091528120546001600160a01b0316801561081a5790506104d7565b600061082585610d81565b90506001600160a01b038116610840576000925050506104d7565b6040516301ffc9a760e01b602482015260009081906001600160a01b0384169060440160408051601f198184030181529181526020820180517bffffffffffffffffffffffffffffffffffffffffffffffffffffffff166301ffc9a760e01b179052516108ad9190612509565b600060405180830381855afa9150503d80600081146108e8576040519150601f19603f3d011682016040523d82523d6000602084013e6108ed565b606091505b5091509150811580610900575060208151105b80610942575080601f8151811061091957610919612701565b01602001517fff0000000000000000000000000000000000000000000000000000000000000016155b156109545760009450505050506104d7565b6040516001600160e01b0319871660248201526001600160a01b0384169060440160408051601f198184030181529181526020820180517bffffffffffffffffffffffffffffffffffffffffffffffffffffffff166301ffc9a760e01b179052516109bf9190612509565b600060405180830381855afa9150503d80600081146109fa576040519150601f19603f3d011682016040523d82523d6000602084013e6109ff565b606091505b509092509050811580610a13575060208151105b80610a55575080601f81518110610a2c57610a2c612701565b01602001517fff0000000000000000000000000000000000000000000000000000000000000016155b15610a675760009450505050506104d7565b509095945050505050565b60008281526001602081815260408084205467ffffffffffffffff1684526002825280842086855290915282206060915b848111610b8a5780851615801590610ad3575060008181526020839052604081208054610acf9061255e565b9050115b15610b825780826000838152602001908152602001600020808054610af79061255e565b80601f0160208091040260200160405190810160405280929190818152602001828054610b239061255e565b8015610b705780601f10610b4557610100808354040283529160200191610b70565b820191906000526020600020905b815481529060010190602001808311610b5357829003601f168201915b50505050509050935093505050610ba3565b60011b610aa3565b5060006040518060200160405280600081525092509250505b9250929050565b60005483906001600160a01b03163314610bc357600080fd5b6040805180820182528481526020808201858152600088815260018084528582205467ffffffffffffffff168252600a84528582208a835290935284902092518355519101555184907f1d6f5e03d3f63eb58751986629a5439baee5079ff04f345becb66e23eb154e4690610c449086908690918252602082015260400190565b60405180910390a250505050565b60005483906001600160a01b03163314610c6b57600080fd5b60008481526001602090815260408083205467ffffffffffffffff168352600482528083208784529091529020610ca38385836125e6565b50837fe379c1624ed7e714cc0937528a32359d69d5281337765313dba4e081b72d75788484604051610c44929190612717565b60005481906001600160a01b03163314610cef57600080fd5b6000828152600160205260408120805467ffffffffffffffff1691610d138361272b565b82546101009290920a67ffffffffffffffff8181021990931691831602179091556000848152600160209081526040918290205491519190921681528492507fc6621ccb8f3f5a04bb6502154b2caf6adf5983fe76dfef1cfc9c42e3579db444910160405180910390a25050565b600080610d8f83603c6114f0565b90508051600003610da35750600092915050565b610dac81611a9e565b9392505050565b60008381526001602090815260408083205467ffffffffffffffff168352600b825280832086845290915290819020905160609190610df5908590859061254e565b90815260200160405180910390208054610e0e9061255e565b80601f0160208091040260200160405190810160405280929190818152602001828054610e3a9061255e565b8015610e875780601f10610e5c57610100808354040283529160200191610e87565b820191906000526020600020905b815481529060010190602001808311610e6a57829003601f168201915b505050505090509392505050565b60008181526001602090815260408083205467ffffffffffffffff168352600582528083208484529091529020805460609190610ed19061255e565b80601f0160208091040260200160405190810160405280929190818152602001828054610efd9061255e565b8015610f4a5780601f10610f1f57610100808354040283529160200191610f4a565b820191906000526020600020905b815481529060010190602001808311610f2d57829003601f168201915b50505050509050919050565b60005484906001600160a01b03163314610f6f57600080fd5b83610f7b60018261253b565b1615610f8657600080fd5b60008581526001602090815260408083205467ffffffffffffffff1683526002825280832088845282528083208784529091529020610fc68385836125e6565b50604051849086907faa121bbeef5f32f5961a2a28966e769023910fc9479059ee3495d4c1a696efe390600090a35050505050565b60008181526001602090815260408083205467ffffffffffffffff168352600982528083208484529091529020805460609190610ed19061255e565b61103f611ac6565b6110496000611b20565b565b60005483906001600160a01b0316331461106457600080fd5b60008481526001602090815260408083205467ffffffffffffffff16835260098252808320878452909152902061109c8385836125e6565b50837fb7d29e911041e8d9b843369e890bcb72c9388692ba48b65ac54e7214c4c348f78484604051610c44929190612717565b60005483906001600160a01b031633146110e857600080fd5b837f65412581168e88a1e60c6459d7f44ae83ad0832e670826c05a4e2476b57af752848460405161111a92919061221d565b60405180910390a2603c830361117157837f52d7d861f09ab3d26239d492e8968629f95e9e318cf0b73bfddc441522a15fd261115584611a9e565b6040516001600160a01b03909116815260200160405180910390a25b60008481526001602090815260408083205467ffffffffffffffff16835260038252808320878452825280832086845290915290206111b08382612752565b5050505050565b6060600080306001600160a01b0316846040516111d49190612509565b600060405180830381855afa9150503d806000811461120f576040519150601f19603f3d011682016040523d82523d6000602084013e611214565b606091505b509150915081156112285791506104d79050565b805160208201fd5b60008381526001602090815260408083205467ffffffffffffffff168352600682528083208684528252808320858452825280832061ffff851684529091529020805460609190610e0e9061255e565b60008181526001602090815260408083205467ffffffffffffffff168352600482528083208484529091529020805460609190610ed19061255e565b60005483906001600160a01b031633146112d557600080fd5b60008481526001602090815260408083205467ffffffffffffffff1680845260058352818420888552909252822080549192916113119061255e565b80601f016020809104026020016040519081016040528092919081815260200182805461133d9061255e565b801561138a5780601f1061135f5761010080835404028352916020019161138a565b820191906000526020600020905b81548152906001019060200180831161136d57829003601f168201915b5050505067ffffffffffffffff841660009081526005602090815260408083208b845290915290209192506113c290508587836125e6565b50857f8f15ed4b723ef428f250961da8315675b507046737e19319fc1a4d81bfe87f858287876040516113f793929190612812565b60405180910390a2505050505050565b60005482906001600160a01b0316331461142057600080fd5b61142f83603c61038185611b7d565b505050565b60005483906001600160a01b0316331461144d57600080fd5b60008481526001602090815260408083205467ffffffffffffffff1683526008825280832087845282528083206001600160e01b0319871680855290835292819020805473ffffffffffffffffffffffffffffffffffffffff19166001600160a01b038716908117909155905190815286917f7c69f06bea0bdef565b709e93a147836b0063ba2dd89f02d0b7e8d931e6a6daa910160405180910390a350505050565b60008281526001602090815260408083205467ffffffffffffffff16835260038252808320858452825280832084845290915290208054606091906115349061255e565b80601f01602080910402602001604051908101604052809291908181526020018280546115609061255e565b80156115ad5780601f10611582576101008083540402835291602001916115ad565b820191906000526020600020905b81548152906001019060200180831161159057829003601f168201915b5050505050905092915050565b6115c2611ac6565b6001600160a01b0381166116435760405162461bcd60e51b815260206004820152602660248201527f4f776e61626c653a206e6577206f776e657220697320746865207a65726f206160448201527f646472657373000000000000000000000000000000000000000000000000000060648201526084015b60405180910390fd5b61164c81611b20565b50565b60006001600160e01b031982167f59d1d43c0000000000000000000000000000000000000000000000000000000014806104d757506104d782611bb6565b6116db6040518060e001604052806060815260200160008152602001600061ffff168152602001600061ffff168152602001600063ffffffff16815260200160008152602001600081525090565b82815260c081018290526104d7816119b6565b602081015181516060916104d7916117069082611bf4565b84519190611c56565b60a081015160c08201516060916104d79161170690829061253b565b600081518351148015610dac5750610dac8360008460008751611ccd565b86516020880120600061175d878787611c56565b905083156118875767ffffffffffffffff831660009081526006602090815260408083208d84528252808320858452825280832061ffff8c168452909152902080546117a89061255e565b1590506118075767ffffffffffffffff831660009081526007602090815260408083208d845282528083208584529091528120805461ffff16916117eb83612842565b91906101000a81548161ffff021916908361ffff160217905550505b67ffffffffffffffff831660009081526006602090815260408083208d84528252808320858452825280832061ffff8c168452909152812061184891611ff1565b897f03528ed0c2a3ebc993b12ce3c16bb382f9c7d88ef7d8a1bf290eaf35955a12078a8a60405161187a929190612860565b60405180910390a26106e3565b67ffffffffffffffff831660009081526006602090815260408083208d84528252808320858452825280832061ffff8c168452909152902080546118ca9061255e565b905060000361192b5767ffffffffffffffff831660009081526007602090815260408083208d845282528083208584529091528120805461ffff169161190f83612886565b91906101000a81548161ffff021916908361ffff160217905550505b67ffffffffffffffff831660009081526006602090815260408083208d84528252808320858452825280832061ffff8c168452909152902061196d8282612752565b50897f52a608b3303a48862d07a73d82fa221318c0027fbbcfb1b2329bface3f19ff2b8a8a846040516119a29392919061289d565b60405180910390a250505050505050505050565b60c081015160208201819052815151116119cd5750565b60006119e182600001518360200151611bf4565b82602001516119f091906128cc565b82519091506119ff9082611cf0565b61ffff166040830152611a136002826128cc565b8251909150611a229082611cf0565b61ffff166060830152611a366002826128cc565b8251909150611a459082611d18565b63ffffffff166080830152611a5b6004826128cc565b8251909150600090611a6d9083611cf0565b61ffff169050611a7e6002836128cc565b60a084018190529150611a9181836128cc565b60c0909301929092525050565b60008151601414611aae57600080fd5b50602001516c01000000000000000000000000900490565b6000546001600160a01b031633146110495760405162461bcd60e51b815260206004820181905260248201527f4f776e61626c653a2063616c6c6572206973206e6f7420746865206f776e6572604482015260640161163a565b600080546001600160a01b0383811673ffffffffffffffffffffffffffffffffffffffff19831681178455604051919092169283917f8be0079c531659141344cd1fd0a4f28419497f9722a3daafe3b4186f6b6457e09190a35050565b6040805160148082528183019092526060916020820181803683375050506c010000000000000000000000009290920260208301525090565b60006001600160e01b031982167fc86902330000000000000000000000000000000000000000000000000000000014806104d757506104d782611d42565b6000815b83518110611c0857611c086128df565b6000611c148583611d80565b60ff169050611c248160016128cc565b611c2e90836128cc565b915080600003611c3e5750611c44565b50611bf8565b611c4e838261253b565b949350505050565b8251606090611c6583856128cc565b1115611c7057600080fd5b60008267ffffffffffffffff811115611c8b57611c8b6122e1565b6040519080825280601f01601f191660200182016040528015611cb5576020820181803683370190505b50905060208082019086860101610a67828287611da4565b6000611cda848484611dfa565b611ce5878785611dfa565b149695505050505050565b8151600090611d008360026128cc565b1115611d0b57600080fd5b50016002015161ffff1690565b8151600090611d288360046128cc565b1115611d3357600080fd5b50016004015163ffffffff1690565b60006001600160e01b031982167f691f34310000000000000000000000000000000000000000000000000000000014806104d757506104d782611e1e565b6000828281518110611d9457611d94612701565b016020015160f81c905092915050565b60208110611ddc5781518352611dbb6020846128cc565b9250611dc86020836128cc565b9150611dd560208261253b565b9050611da4565b905182516020929092036101000a6000190180199091169116179052565b8251600090611e0983856128cc565b1115611e1457600080fd5b5091016020012090565b60006001600160e01b031982167f124a319c0000000000000000000000000000000000000000000000000000000014806104d757506104d78260006001600160e01b031982167fa8fa5682000000000000000000000000000000000000000000000000000000001480611eba57506001600160e01b031982167f5c98042b00000000000000000000000000000000000000000000000000000000145b806104d757506104d78260006001600160e01b031982167fbc1c58d10000000000000000000000000000000000000000000000000000000014806104d757506104d78260006001600160e01b031982167f3b3b57de000000000000000000000000000000000000000000000000000000001480611f6057506001600160e01b031982167ff1cb7e0600000000000000000000000000000000000000000000000000000000145b806104d757506104d78260006001600160e01b031982167f2203ab560000000000000000000000000000000000000000000000000000000014806104d757506104d78260006001600160e01b031982167fd700ff330000000000000000000000000000000000000000000000000000000014806104d757506301ffc9a760e01b6001600160e01b03198316146104d7565b508054611ffd9061255e565b6000825580601f1061200d575050565b601f01602090049060005260206000209081019061164c91905b8082111561203b5760008155600101612027565b5090565b80356001600160e01b03198116811461205757600080fd5b919050565b60006020828403121561206e57600080fd5b610dac8261203f565b60008083601f84011261208957600080fd5b50813567ffffffffffffffff8111156120a157600080fd5b602083019150836020828501011115610ba357600080fd5b6000806000604084860312156120ce57600080fd5b83359250602084013567ffffffffffffffff8111156120ec57600080fd5b6120f886828701612077565b9497909650939450505050565b60008060008060006060868803121561211d57600080fd5b85359450602086013567ffffffffffffffff8082111561213c57600080fd5b61214889838a01612077565b9096509450604088013591508082111561216157600080fd5b5061216e88828901612077565b969995985093965092949392505050565b6000806040838503121561219257600080fd5b823591506121a26020840161203f565b90509250929050565b600080604083850312156121be57600080fd5b50508035926020909101359150565b60005b838110156121e85781810151838201526020016121d0565b50506000910152565b600081518084526122098160208601602086016121cd565b601f01601f19169290920160200192915050565b828152604060208201526000611c4e60408301846121f1565b60008060006060848603121561224b57600080fd5b505081359360208301359350604090920135919050565b60006020828403121561227457600080fd5b5035919050565b602081526000610dac60208301846121f1565b600080600080606085870312156122a457600080fd5b8435935060208501359250604085013567ffffffffffffffff8111156122c957600080fd5b6122d587828801612077565b95989497509550505050565b634e487b7160e01b600052604160045260246000fd5b600082601f83011261230857600080fd5b813567ffffffffffffffff80821115612323576123236122e1565b604051601f8301601f19908116603f0116810190828211818310171561234b5761234b6122e1565b8160405283815286602085880101111561236457600080fd5b836020870160208301376000602085830101528094505050505092915050565b60008060006060848603121561239957600080fd5b8335925060208401359150604084013567ffffffffffffffff8111156123be57600080fd5b6123ca868287016122f7565b9150509250925092565b600080604083850312156123e757600080fd5b823567ffffffffffffffff808211156123ff57600080fd5b61240b868387016122f7565b9350602085013591508082111561242157600080fd5b5061242e858286016122f7565b9150509250929050565b60008060006060848603121561244d57600080fd5b8335925060208401359150604084013561ffff8116811461246d57600080fd5b809150509250925092565b80356001600160a01b038116811461205757600080fd5b600080604083850312156124a257600080fd5b823591506121a260208401612478565b6000806000606084860312156124c757600080fd5b833592506124d76020850161203f565b91506124e560408501612478565b90509250925092565b60006020828403121561250057600080fd5b610dac82612478565b6000825161251b8184602087016121cd565b9190910192915050565b634e487b7160e01b600052601160045260246000fd5b818103818111156104d7576104d7612525565b8183823760009101908152919050565b600181811c9082168061257257607f821691505b60208210810361259257634e487b7160e01b600052602260045260246000fd5b50919050565b601f82111561142f57600081815260208120601f850160051c810160208610156125bf5750805b601f850160051c820191505b818110156125de578281556001016125cb565b505050505050565b67ffffffffffffffff8311156125fe576125fe6122e1565b6126128361260c835461255e565b83612598565b6000601f841160018114612646576000851561262e5750838201355b600019600387901b1c1916600186901b1783556111b0565b600083815260209020601f19861690835b828110156126775786850135825560209485019460019092019101612657565b50868210156126945760001960f88860031b161c19848701351681555b505060018560011b0183555050505050565b81835281816020850137506000828201602090810191909152601f909101601f19169091010190565b6040815260006126e36040830186886126a6565b82810360208401526126f68185876126a6565b979650505050505050565b634e487b7160e01b600052603260045260246000fd5b602081526000611c4e6020830184866126a6565b600067ffffffffffffffff80831681810361274857612748612525565b6001019392505050565b815167ffffffffffffffff81111561276c5761276c6122e1565b6127808161277a845461255e565b84612598565b602080601f8311600181146127b5576000841561279d5750858301515b600019600386901b1c1916600185901b1785556125de565b600085815260208120601f198616915b828110156127e4578886015182559484019460019091019084016127c5565b50858210156128025787850151600019600388901b60f8161c191681555b5050505050600190811b01905550565b60408152600061282560408301866121f1565b82810360208401526128388185876126a6565b9695505050505050565b600061ffff82168061285657612856612525565b6000190192915050565b60408152600061287360408301856121f1565b905061ffff831660208301529392505050565b600061ffff80831681810361274857612748612525565b6060815260006128b060608301866121f1565b61ffff85166020840152828103604084015261283881856121f1565b808201808211156104d7576104d7612525565b634e487b7160e01b600052600160045260246000fdfea2646970667358221220d63de109e6c80b38d1403d6423ad4efae0eced77107190ecf76f02ee79060a1864736f6c63430008110033",
  "linkReferences": {},
  "deployedLinkReferences": {}
}